{
  "_format": "hh-sol-artifact-1",
  "contractName": "LendingPool",
  "sourceName": "contracts/core/LendingPool.sol",
  "abi": [
    {
      "inputs": [
        {
          "internalType": "address",
          "name": "_usdcToken",
          "type": "address"
        }
      ],
      "stateMutability": "nonpayable",
      "type": "constructor"
    },
    {
      "inputs": [
        {
          "internalType": "address",
          "name": "owner",
          "type": "address"
        }
      ],
      "name": "OwnableInvalidOwner",
      "type": "error"
    },
    {
      "inputs": [
        {
          "internalType": "address",
          "name": "account",
          "type": "address"
        }
      ],
      "name": "OwnableUnauthorizedAccount",
      "type": "error"
    },
    {
      "inputs": [
        {
          "internalType": "address",
          "name": "token",
          "type": "address"
        }
      ],
      "name": "SafeERC20FailedOperation",
      "type": "error"
    },
    {
      "anonymous": false,
      "inputs": [
        {
          "indexed": true,
          "internalType": "address",
          "name": "user",
          "type": "address"
        },
        {
          "indexed": false,
          "internalType": "uint256",
          "name": "amount",
          "type": "uint256"
        }
      ],
      "name": "Deposited",
      "type": "event"
    },
    {
      "anonymous": false,
      "inputs": [
        {
          "indexed": true,
          "internalType": "address",
          "name": "previousOwner",
          "type": "address"
        },
        {
          "indexed": true,
          "internalType": "address",
          "name": "newOwner",
          "type": "address"
        }
      ],
      "name": "OwnershipTransferred",
      "type": "event"
    },
    {
      "anonymous": false,
      "inputs": [
        {
          "indexed": true,
          "internalType": "address",
          "name": "vault",
          "type": "address"
        }
      ],
      "name": "VaultSet",
      "type": "event"
    },
    {
      "anonymous": false,
      "inputs": [
        {
          "indexed": true,
          "internalType": "address",
          "name": "user",
          "type": "address"
        },
        {
          "indexed": false,
          "internalType": "uint256",
          "name": "amount",
          "type": "uint256"
        }
      ],
      "name": "Withdrawn",
      "type": "event"
    },
    {
      "inputs": [
        {
          "internalType": "uint256",
          "name": "amount",
          "type": "uint256"
        }
      ],
      "name": "deposit",
      "outputs": [],
      "stateMutability": "nonpayable",
      "type": "function"
    },
    {
      "inputs": [
        {
          "internalType": "address",
          "name": "",
          "type": "address"
        }
      ],
      "name": "deposits",
      "outputs": [
        {
          "internalType": "uint256",
          "name": "",
          "type": "uint256"
        }
      ],
      "stateMutability": "view",
      "type": "function"
    },
    {
      "inputs": [],
      "name": "getLiquidity",
      "outputs": [
        {
          "internalType": "uint256",
          "name": "",
          "type": "uint256"
        }
      ],
      "stateMutability": "view",
      "type": "function"
    },
    {
      "inputs": [
        {
          "internalType": "address",
          "name": "borrower",
          "type": "address"
        },
        {
          "internalType": "uint256",
          "name": "amount",
          "type": "uint256"
        }
      ],
      "name": "lend",
      "outputs": [],
      "stateMutability": "nonpayable",
      "type": "function"
    },
    {
      "inputs": [],
      "name": "owner",
      "outputs": [
        {
          "internalType": "address",
          "name": "",
          "type": "address"
        }
      ],
      "stateMutability": "view",
      "type": "function"
    },
    {
      "inputs": [],
      "name": "renounceOwnership",
      "outputs": [],
      "stateMutability": "nonpayable",
      "type": "function"
    },
    {
      "inputs": [
        {
          "internalType": "uint256",
          "name": "amount",
          "type": "uint256"
        }
      ],
      "name": "repayLoan",
      "outputs": [],
      "stateMutability": "nonpayable",
      "type": "function"
    },
    {
      "inputs": [
        {
          "internalType": "address",
          "name": "_vault",
          "type": "address"
        }
      ],
      "name": "setVault",
      "outputs": [],
      "stateMutability": "nonpayable",
      "type": "function"
    },
    {
      "inputs": [],
      "name": "totalDeposits",
      "outputs": [
        {
          "internalType": "uint256",
          "name": "",
          "type": "uint256"
        }
      ],
      "stateMutability": "view",
      "type": "function"
    },
    {
      "inputs": [
        {
          "internalType": "address",
          "name": "newOwner",
          "type": "address"
        }
      ],
      "name": "transferOwnership",
      "outputs": [],
      "stateMutability": "nonpayable",
      "type": "function"
    },
    {
      "inputs": [],
      "name": "usdcToken",
      "outputs": [
        {
          "internalType": "contract IERC20",
          "name": "",
          "type": "address"
        }
      ],
      "stateMutability": "view",
      "type": "function"
    },
    {
      "inputs": [],
      "name": "vault",
      "outputs": [
        {
          "internalType": "address",
          "name": "",
          "type": "address"
        }
      ],
      "stateMutability": "view",
      "type": "function"
    },
    {
      "inputs": [],
      "name": "vaultSet",
      "outputs": [
        {
          "internalType": "bool",
          "name": "",
          "type": "bool"
        }
      ],
      "stateMutability": "view",
      "type": "function"
    },
    {
      "inputs": [
        {
          "internalType": "uint256",
          "name": "amount",
          "type": "uint256"
        }
      ],
      "name": "withdraw",
      "outputs": [],
      "stateMutability": "nonpayable",
      "type": "function"
    }
  ],
  "bytecode": "0x608060405234801561001057600080fd5b50604051610b3b380380610b3b83398101604081905261002f9161012b565b338061005657604051631e4fbdf760e01b8152600060048201526024015b60405180910390fd5b61005f816100db565b506001600160a01b0381166100b65760405162461bcd60e51b815260206004820152601460248201527f496e76616c696420555344432061646472657373000000000000000000000000604482015260640161004d565b600180546001600160a01b0319166001600160a01b039290921691909117905561015b565b600080546001600160a01b038381166001600160a01b0319831681178455604051919092169283917f8be0079c531659141344cd1fd0a4f28419497f9722a3daafe3b4186f6b6457e09190a35050565b60006020828403121561013d57600080fd5b81516001600160a01b038116811461015457600080fd5b9392505050565b6109d18061016a6000396000f3fe608060405234801561001057600080fd5b50600436106100ea5760003560e01c80638dac07b31161008c578063b6b55f2511610066578063b6b55f25146101c9578063f2fde38b146101dc578063fbfa77cf146101ef578063fc7e286d1461020257600080fd5b80638dac07b31461017f578063a2fb342d146101a3578063ab7b1c89146101b657600080fd5b80636817031b116100c85780636817031b1461014a578063715018a61461015d5780637d882097146101655780638da5cb5b1461016e57600080fd5b80630910a510146100ef57806311eac8551461010a5780632e1a7d4d14610135575b600080fd5b6100f7610222565b6040519081526020015b60405180910390f35b60015461011d906001600160a01b031681565b6040516001600160a01b039091168152602001610101565b610148610143366004610888565b610294565b005b6101486101583660046108bd565b6103f7565b6101486104eb565b6100f760035481565b6000546001600160a01b031661011d565b60045461019390600160a01b900460ff1681565b6040519015158152602001610101565b6101486101b13660046108df565b6104ff565b6101486101c4366004610888565b6105da565b6101486101d7366004610888565b610615565b6101486101ea3660046108bd565b6106bc565b60045461011d906001600160a01b031681565b6100f76102103660046108bd565b60026020526000908152604090205481565b6001546040516370a0823160e01b81523060048201526000916001600160a01b0316906370a0823190602401602060405180830381865afa15801561026b573d6000803e3d6000fd5b505050506040513d601f19601f8201168201806040525081019061028f9190610909565b905090565b600081116102bd5760405162461bcd60e51b81526004016102b490610922565b60405180910390fd5b336000908152600260205260409020548111156103135760405162461bcd60e51b8152602060048201526014602482015273496e73756666696369656e742062616c616e636560601b60448201526064016102b4565b8061031c610222565b101561036a5760405162461bcd60e51b815260206004820152601e60248201527f496e73756666696369656e74206c697175696469747920696e20706f6f6c000060448201526064016102b4565b336000908152600260205260408120805483929061038990849061096f565b9250508190555080600360008282546103a2919061096f565b90915550506001546103be906001600160a01b031633836106f7565b60405181815233907f7084f5476618d8e60b11ef0d7d3f06914655adb8793e28ff7f018d4c76d505d5906020015b60405180910390a250565b6103ff61075b565b600454600160a01b900460ff161561044d5760405162461bcd60e51b815260206004820152601160248201527015985d5b1d08185b1c9958591e481cd95d607a1b60448201526064016102b4565b6001600160a01b03811661049b5760405162461bcd60e51b8152602060048201526015602482015274496e76616c6964207661756c74206164647265737360581b60448201526064016102b4565b600480546001600160a81b0319166001600160a01b038316908117600160a01b179091556040517fe7ae49f883c825b05681b3e00e8be6fdea9ed2a8a45e4c6ecb9390fc44cce61590600090a250565b6104f361075b565b6104fd6000610788565b565b6004546001600160a01b0316331461054f5760405162461bcd60e51b815260206004820152601360248201527213db9b1e481d985d5b1d0818d85b881b195b99606a1b60448201526064016102b4565b6000811161056f5760405162461bcd60e51b81526004016102b490610922565b80610578610222565b10156105bf5760405162461bcd60e51b8152602060048201526016602482015275496e73756666696369656e74206c697175696469747960501b60448201526064016102b4565b6001546105d6906001600160a01b031683836106f7565b5050565b600081116105fa5760405162461bcd60e51b81526004016102b490610922565b600154610612906001600160a01b03163330846107d8565b50565b600081116106355760405162461bcd60e51b81526004016102b490610922565b60015461064d906001600160a01b03163330846107d8565b336000908152600260205260408120805483929061066c908490610988565b9250508190555080600360008282546106859190610988565b909155505060405181815233907f2da466a7b24304f47e87fa2e1e5a81b9831ce54fec19055ce277ca2f39ba42c4906020016103ec565b6106c461075b565b6001600160a01b0381166106ee57604051631e4fbdf760e01b8152600060048201526024016102b4565b61061281610788565b6040516001600160a01b0383811660248301526044820183905261075691859182169063a9059cbb906064015b604051602081830303815290604052915060e01b6020820180516001600160e01b038381831617835250505050610817565b505050565b6000546001600160a01b031633146104fd5760405163118cdaa760e01b81523360048201526024016102b4565b600080546001600160a01b038381166001600160a01b0319831681178455604051919092169283917f8be0079c531659141344cd1fd0a4f28419497f9722a3daafe3b4186f6b6457e09190a35050565b6040516001600160a01b0384811660248301528381166044830152606482018390526108119186918216906323b872dd90608401610724565b50505050565b600080602060008451602086016000885af18061083a576040513d6000823e3d81fd5b50506000513d9150811561085257806001141561085f565b6001600160a01b0384163b155b1561081157604051635274afe760e01b81526001600160a01b03851660048201526024016102b4565b60006020828403121561089a57600080fd5b5035919050565b80356001600160a01b03811681146108b857600080fd5b919050565b6000602082840312156108cf57600080fd5b6108d8826108a1565b9392505050565b600080604083850312156108f257600080fd5b6108fb836108a1565b946020939093013593505050565b60006020828403121561091b57600080fd5b5051919050565b6020808252601d908201527f416d6f756e74206d7573742062652067726561746572207468616e2030000000604082015260600190565b634e487b7160e01b600052601160045260246000fd5b8181038181111561098257610982610959565b92915050565b808201808211156109825761098261095956fea2646970667358221220b1cd3bf7bacbace90c085eb50a548f7b9423fd62cbbf6ff0e2cf6f5e00e5f19e64736f6c63430008140033",
  "linkReferences": {},
  "deployedLinkReferences": {}
}