{
  "_format": "hh-sol-artifact-1",
  "contractName": "LiquidationManager",
  "sourceName": "contracts/core/LiquidationManager.sol",
  "abi": [
    {
      "inputs": [
        {
          "internalType": "address",
          "name": "_vault",
          "type": "address"
        },
        {
          "internalType": "address",
          "name": "_oracle",
          "type": "address"
        },
        {
          "internalType": "address",
          "name": "_usdcToken",
          "type": "address"
        },
        {
          "internalType": "address",
          "name": "_lendingPool",
          "type": "address"
        }
      ],
      "stateMutability": "nonpayable",
      "type": "constructor"
    },
    {
      "inputs": [
        {
          "internalType": "address",
          "name": "token",
          "type": "address"
        }
      ],
      "name": "SafeERC20FailedOperation",
      "type": "error"
    },
    {
      "anonymous": false,
      "inputs": [
        {
          "indexed": true,
          "internalType": "uint256",
          "name": "tokenId",
          "type": "uint256"
        },
        {
          "indexed": true,
          "internalType": "address",
          "name": "winner",
          "type": "address"
        },
        {
          "indexed": false,
          "internalType": "uint256",
          "name": "finalBid",
          "type": "uint256"
        }
      ],
      "name": "AuctionEnded",
      "type": "event"
    },
    {
      "anonymous": false,
      "inputs": [
        {
          "indexed": true,
          "internalType": "uint256",
          "name": "tokenId",
          "type": "uint256"
        },
        {
          "indexed": false,
          "internalType": "uint256",
          "name": "endTime",
          "type": "uint256"
        },
        {
          "indexed": false,
          "internalType": "uint256",
          "name": "debt",
          "type": "uint256"
        }
      ],
      "name": "AuctionStarted",
      "type": "event"
    },
    {
      "anonymous": false,
      "inputs": [
        {
          "indexed": true,
          "internalType": "uint256",
          "name": "tokenId",
          "type": "uint256"
        },
        {
          "indexed": true,
          "internalType": "address",
          "name": "bidder",
          "type": "address"
        },
        {
          "indexed": false,
          "internalType": "uint256",
          "name": "amount",
          "type": "uint256"
        }
      ],
      "name": "NewBid",
      "type": "event"
    },
    {
      "inputs": [],
      "name": "AUCTION_DURATION",
      "outputs": [
        {
          "internalType": "uint256",
          "name": "",
          "type": "uint256"
        }
      ],
      "stateMutability": "view",
      "type": "function"
    },
    {
      "inputs": [],
      "name": "BID_PRECISION",
      "outputs": [
        {
          "internalType": "uint256",
          "name": "",
          "type": "uint256"
        }
      ],
      "stateMutability": "view",
      "type": "function"
    },
    {
      "inputs": [],
      "name": "MIN_BID_INCREMENT",
      "outputs": [
        {
          "internalType": "uint256",
          "name": "",
          "type": "uint256"
        }
      ],
      "stateMutability": "view",
      "type": "function"
    },
    {
      "inputs": [
        {
          "internalType": "uint256",
          "name": "",
          "type": "uint256"
        }
      ],
      "name": "auctions",
      "outputs": [
        {
          "internalType": "uint256",
          "name": "tokenId",
          "type": "uint256"
        },
        {
          "internalType": "address",
          "name": "highestBidder",
          "type": "address"
        },
        {
          "internalType": "uint256",
          "name": "highestBid",
          "type": "uint256"
        },
        {
          "internalType": "uint256",
          "name": "endTime",
          "type": "uint256"
        },
        {
          "internalType": "bool",
          "name": "active",
          "type": "bool"
        },
        {
          "internalType": "address",
          "name": "originalOwner",
          "type": "address"
        },
        {
          "internalType": "uint256",
          "name": "originalDebt",
          "type": "uint256"
        }
      ],
      "stateMutability": "view",
      "type": "function"
    },
    {
      "inputs": [
        {
          "internalType": "uint256",
          "name": "tokenId",
          "type": "uint256"
        },
        {
          "internalType": "uint256",
          "name": "bidAmount",
          "type": "uint256"
        }
      ],
      "name": "bid",
      "outputs": [],
      "stateMutability": "nonpayable",
      "type": "function"
    },
    {
      "inputs": [
        {
          "internalType": "uint256",
          "name": "tokenId",
          "type": "uint256"
        }
      ],
      "name": "checkHealth",
      "outputs": [
        {
          "internalType": "bool",
          "name": "",
          "type": "bool"
        }
      ],
      "stateMutability": "view",
      "type": "function"
    },
    {
      "inputs": [
        {
          "internalType": "uint256",
          "name": "tokenId",
          "type": "uint256"
        }
      ],
      "name": "endAuction",
      "outputs": [],
      "stateMutability": "nonpayable",
      "type": "function"
    },
    {
      "inputs": [
        {
          "internalType": "uint256",
          "name": "tokenId",
          "type": "uint256"
        }
      ],
      "name": "getAuction",
      "outputs": [
        {
          "components": [
            {
              "internalType": "uint256",
              "name": "tokenId",
              "type": "uint256"
            },
            {
              "internalType": "address",
              "name": "highestBidder",
              "type": "address"
            },
            {
              "internalType": "uint256",
              "name": "highestBid",
              "type": "uint256"
            },
            {
              "internalType": "uint256",
              "name": "endTime",
              "type": "uint256"
            },
            {
              "internalType": "bool",
              "name": "active",
              "type": "bool"
            },
            {
              "internalType": "address",
              "name": "originalOwner",
              "type": "address"
            },
            {
              "internalType": "uint256",
              "name": "originalDebt",
              "type": "uint256"
            }
          ],
          "internalType": "struct LiquidationManager.Auction",
          "name": "",
          "type": "tuple"
        }
      ],
      "stateMutability": "view",
      "type": "function"
    },
    {
      "inputs": [
        {
          "internalType": "uint256",
          "name": "tokenId",
          "type": "uint256"
        }
      ],
      "name": "getTimeLeft",
      "outputs": [
        {
          "internalType": "uint256",
          "name": "",
          "type": "uint256"
        }
      ],
      "stateMutability": "view",
      "type": "function"
    },
    {
      "inputs": [],
      "name": "lendingPool",
      "outputs": [
        {
          "internalType": "contract LendingPool",
          "name": "",
          "type": "address"
        }
      ],
      "stateMutability": "view",
      "type": "function"
    },
    {
      "inputs": [],
      "name": "oracle",
      "outputs": [
        {
          "internalType": "contract RWA_Oracle",
          "name": "",
          "type": "address"
        }
      ],
      "stateMutability": "view",
      "type": "function"
    },
    {
      "inputs": [
        {
          "internalType": "uint256",
          "name": "tokenId",
          "type": "uint256"
        }
      ],
      "name": "startAuction",
      "outputs": [],
      "stateMutability": "nonpayable",
      "type": "function"
    },
    {
      "inputs": [],
      "name": "usdcToken",
      "outputs": [
        {
          "internalType": "contract IERC20",
          "name": "",
          "type": "address"
        }
      ],
      "stateMutability": "view",
      "type": "function"
    },
    {
      "inputs": [],
      "name": "vault",
      "outputs": [
        {
          "internalType": "contract Vault",
          "name": "",
          "type": "address"
        }
      ],
      "stateMutability": "view",
      "type": "function"
    }
  ],
  "bytecode": "0x60806040523480156200001157600080fd5b50604051620012c5380380620012c5833981016040819052620000349162000209565b6001600160a01b038416620000905760405162461bcd60e51b815260206004820152601560248201527f496e76616c6964207661756c742061646472657373000000000000000000000060448201526064015b60405180910390fd5b6001600160a01b038316620000e85760405162461bcd60e51b815260206004820152601660248201527f496e76616c6964206f7261636c65206164647265737300000000000000000000604482015260640162000087565b6001600160a01b038216620001405760405162461bcd60e51b815260206004820152601460248201527f496e76616c696420555344432061646472657373000000000000000000000000604482015260640162000087565b6001600160a01b038116620001985760405162461bcd60e51b815260206004820152601460248201527f496e76616c696420706f6f6c2061646472657373000000000000000000000000604482015260640162000087565b600080546001600160a01b039586166001600160a01b031991821617909155600180549486169482169490941790935560028054928516928416929092179091556003805491909316911617905562000266565b80516001600160a01b03811681146200020457600080fd5b919050565b600080600080608085870312156200022057600080fd5b6200022b85620001ec565b93506200023b60208601620001ec565b92506200024b60408601620001ec565b91506200025b60608601620001ec565b905092959194509250565b61104f80620002766000396000f3fe608060405234801561001057600080fd5b50600436106100ea5760003560e01c8063a271e5251161008c578063dfe8f67111610066578063dfe8f671146102b5578063e0bffd7b146102d8578063e8c58763146102e0578063fbfa77cf146102f357600080fd5b8063a271e52514610285578063a59a99731461028f578063b9a2de3a146102a257600080fd5b8063598647f8116100c8578063598647f8146101d057806371943bce146101e357806378bd7935146101f95780637dc0d1d01461027257600080fd5b8063065de74c146100ef57806311eac85514610104578063571a26a014610134575b600080fd5b6101026100fd366004610ea8565b610306565b005b600254610117906001600160a01b031681565b6040516001600160a01b0390911681526020015b60405180910390f35b61018f610142366004610ea8565b600460208190526000918252604090912080546001820154600283015460038401549484015460059094015492946001600160a01b03928316949193909260ff8316926101009004169087565b604080519788526001600160a01b03968716602089015287019490945260608601929092521515608085015290911660a083015260c082015260e00161012b565b6101026101de366004610ec1565b6105ae565b6101eb600581565b60405190815260200161012b565b61020c610207366004610ea8565b61080a565b60405161012b9190600060e08201905082518252602083015160018060a01b03808216602085015260408501516040850152606085015160608501526080850151151560808501528060a08601511660a0850152505060c083015160c083015292915050565b600154610117906001600160a01b031681565b6101eb6203f48081565b600354610117906001600160a01b031681565b6101026102b0366004610ea8565b6108d0565b6102c86102c3366004610ea8565b610b4c565b604051901515815260200161012b565b6101eb606481565b6101eb6102ee366004610ea8565b610ced565b600054610117906001600160a01b031681565b6000818152600460208190526040909120015460ff16156103675760405162461bcd60e51b815260206004820152601660248201527541756374696f6e20616c72656164792061637469766560501b60448201526064015b60405180910390fd5b61037081610b4c565b156103b35760405162461bcd60e51b8152602060048201526013602482015272506f736974696f6e206973206865616c74687960681b604482015260640161035e565b6000805460405163eb02c30160e01b8152600481018490526001600160a01b039091169063eb02c30190602401608060405180830381865afa1580156103fd573d6000803e3d6000fd5b505050506040513d601f19601f820116820180604052508101906104219190610ef8565b905080606001516104745760405162461bcd60e51b815260206004820152601760248201527f506f736974696f6e20646f6573206e6f74206578697374000000000000000000604482015260640161035e565b6040518060e0016040528083815260200160006001600160a01b03168152602001600081526020016203f480426104ab9190610f9b565b81526001602080830182905284516001600160a01b03908116604080860191909152868301516060958601526000888152600480855290829020875181559387015194840180546001600160a01b0319169584169590951790945585015160028301559284015160038201556080840151918101805460a08601516001600160a81b0319909116931515610100600160a81b03191693909317610100939094169290920292909217905560c090910151600590910155817f44c53be110c6aa83aa83cd02e351ed172359268272ee1b5d31c0fe48db35c6c76105906203f48042610f9b565b60208085015160408051938452918301520160405180910390a25050565b60008281526004602081905260409091209081015460ff166106075760405162461bcd60e51b815260206004820152601260248201527141756374696f6e206e6f742061637469766560701b604482015260640161035e565b8060030154421061064a5760405162461bcd60e51b815260206004820152600d60248201526c105d58dd1a5bdb88195b991959609a1b604482015260640161035e565b6000821161069a5760405162461bcd60e51b815260206004820152601a60248201527f426964206d7573742062652067726561746572207468616e2030000000000000604482015260640161035e565b6002810154156107185760006064600583600201546106b99190610fb4565b6106c39190610fcb565b82600201546106d29190610f9b565b9050808310156107125760405162461bcd60e51b815260206004820152600b60248201526a42696420746f6f206c6f7760a81b604482015260640161035e565b50610762565b80600501548210156107625760405162461bcd60e51b8152602060048201526013602482015272109a59081b5d5cdd0818dbdd995c881919589d606a1b604482015260640161035e565b60018101546001600160a01b03161561079a576001810154600280830154905461079a926001600160a01b0391821692911690610d94565b6002546107b2906001600160a01b0316333085610df8565b6001810180546001600160a01b031916339081179091556002820183905560405183815284907f558a0d5d5468d74b0db24c74eb348b42271c2ebb4c9e953ced38aaed95fa43619060200160405180910390a3505050565b61085e6040518060e001604052806000815260200160006001600160a01b03168152602001600081526020016000815260200160001515815260200160006001600160a01b03168152602001600081525090565b50600090815260046020818152604092839020835160e0810185528154815260018201546001600160a01b0390811693820193909352600282015494810194909452600381015460608501529182015460ff81161515608085015261010090041660a08301526005015460c082015290565b60008181526004602081905260409091209081015460ff166109295760405162461bcd60e51b815260206004820152601260248201527141756374696f6e206e6f742061637469766560701b604482015260640161035e565b80600301544210156109755760405162461bcd60e51b8152602060048201526015602482015274105d58dd1a5bdb881b9bdd08195b991959081e595d605a1b604482015260640161035e565b60018101546001600160a01b03166109c25760405162461bcd60e51b815260206004820152601060248201526f139bc8189a591cc81c9958d95a5d995960821b604482015260640161035e565b6002808201546005830154600184015460048501805460ff1981169091556003549454939492936001600160a01b0392831693610100909204831692610a0d92918116911685610d94565b82841115610a3d576000610a218486610fed565b600254909150610a3b906001600160a01b03168383610d94565b505b600054604051623859b760e31b8152600481018890526001600160a01b03909116906301c2cdb890602401600060405180830381600087803b158015610a8257600080fd5b505af1158015610a96573d6000803e3d6000fd5b505060005460405163574d9c5960e11b8152600481018a90526001600160a01b038681166024830152909116925063ae9b38b29150604401600060405180830381600087803b158015610ae857600080fd5b505af1158015610afc573d6000803e3d6000fd5b50505050816001600160a01b0316867fd2aa34a4fdbbc6dff6a3e56f46e0f3ae2a31d7785ff3487aa5c95c642acea50186604051610b3c91815260200190565b60405180910390a3505050505050565b6000805460405163eb02c30160e01b81526004810184905282916001600160a01b03169063eb02c30190602401608060405180830381865afa158015610b96573d6000803e3d6000fd5b505050506040513d601f19601f82011682018060405250810190610bba9190610ef8565b905080606001511580610bcf57506020810151155b15610bdd5750600192915050565b600154604051635e694cf560e01b8152600481018590526000916001600160a01b031690635e694cf590602401602060405180830381865afa158015610c27573d6000803e3d6000fd5b505050506040513d601f19601f82011682018060405250810190610c4b9190611000565b90506000606460008054906101000a90046001600160a01b03166001600160a01b03166362965d8e6040518163ffffffff1660e01b8152600401602060405180830381865afa158015610ca2573d6000803e3d6000fd5b505050506040513d601f19601f82011682018060405250810190610cc69190611000565b610cd09084610fb4565b610cda9190610fcb565b6020909301519290921115949350505050565b6000818152600460208181526040808420815160e0810183528154815260018201546001600160a01b0390811694820194909452600282015492810192909252600381015460608301529283015460ff8116158015608084015261010090910490921660a082015260059092015460c083015280610d6f575080606001514210155b15610d7d5750600092915050565b428160600151610d8d9190610fed565b9392505050565b6040516001600160a01b03838116602483015260448201839052610df391859182169063a9059cbb906064015b604051602081830303815290604052915060e01b6020820180516001600160e01b038381831617835250505050610e37565b505050565b6040516001600160a01b038481166024830152838116604483015260648201839052610e319186918216906323b872dd90608401610dc1565b50505050565b600080602060008451602086016000885af180610e5a576040513d6000823e3d81fd5b50506000513d91508115610e72578060011415610e7f565b6001600160a01b0384163b155b15610e3157604051635274afe760e01b81526001600160a01b038516600482015260240161035e565b600060208284031215610eba57600080fd5b5035919050565b60008060408385031215610ed457600080fd5b50508035926020909101359150565b80518015158114610ef357600080fd5b919050565b600060808284031215610f0a57600080fd5b6040516080810181811067ffffffffffffffff82111715610f3b57634e487b7160e01b600052604160045260246000fd5b60405282516001600160a01b0381168114610f5557600080fd5b808252506020830151602082015260408301516040820152610f7960608401610ee3565b60608201529392505050565b634e487b7160e01b600052601160045260246000fd5b80820180821115610fae57610fae610f85565b92915050565b8082028115828204841417610fae57610fae610f85565b600082610fe857634e487b7160e01b600052601260045260246000fd5b500490565b81810381811115610fae57610fae610f85565b60006020828403121561101257600080fd5b505191905056fea264697066735822122021d082e72f34860bb5ba1a37f0f5e57f24124d8daaba1f896f37b79efaa5ffcd64736f6c63430008140033",
  "linkReferences": {},
  "deployedLinkReferences": {}
}