{
  "_format": "hh-sol-artifact-1",
  "contractName": "RWA_NFT",
  "sourceName": "contracts/tokens/RWA_NFT.sol",
  "abi": [
    {
      "inputs": [],
      "stateMutability": "nonpayable",
      "type": "constructor"
    },
    {
      "inputs": [],
      "name": "ERC721EnumerableForbiddenBatchMint",
      "type": "error"
    },
    {
      "inputs": [
        {
          "internalType": "address",
          "name": "sender",
          "type": "address"
        },
        {
          "internalType": "uint256",
          "name": "tokenId",
          "type": "uint256"
        },
        {
          "internalType": "address",
          "name": "owner",
          "type": "address"
        }
      ],
      "name": "ERC721IncorrectOwner",
      "type": "error"
    },
    {
      "inputs": [
        {
          "internalType": "address",
          "name": "operator",
          "type": "address"
        },
        {
          "internalType": "uint256",
          "name": "tokenId",
          "type": "uint256"
        }
      ],
      "name": "ERC721InsufficientApproval",
      "type": "error"
    },
    {
      "inputs": [
        {
          "internalType": "address",
          "name": "approver",
          "type": "address"
        }
      ],
      "name": "ERC721InvalidApprover",
      "type": "error"
    },
    {
      "inputs": [
        {
          "internalType": "address",
          "name": "operator",
          "type": "address"
        }
      ],
      "name": "ERC721InvalidOperator",
      "type": "error"
    },
    {
      "inputs": [
        {
          "internalType": "address",
          "name": "owner",
          "type": "address"
        }
      ],
      "name": "ERC721InvalidOwner",
      "type": "error"
    },
    {
      "inputs": [
        {
          "internalType": "address",
          "name": "receiver",
          "type": "address"
        }
      ],
      "name": "ERC721InvalidReceiver",
      "type": "error"
    },
    {
      "inputs": [
        {
          "internalType": "address",
          "name": "sender",
          "type": "address"
        }
      ],
      "name": "ERC721InvalidSender",
      "type": "error"
    },
    {
      "inputs": [
        {
          "internalType": "uint256",
          "name": "tokenId",
          "type": "uint256"
        }
      ],
      "name": "ERC721NonexistentToken",
      "type": "error"
    },
    {
      "inputs": [
        {
          "internalType": "address",
          "name": "owner",
          "type": "address"
        },
        {
          "internalType": "uint256",
          "name": "index",
          "type": "uint256"
        }
      ],
      "name": "ERC721OutOfBoundsIndex",
      "type": "error"
    },
    {
      "inputs": [
        {
          "internalType": "address",
          "name": "owner",
          "type": "address"
        }
      ],
      "name": "OwnableInvalidOwner",
      "type": "error"
    },
    {
      "inputs": [
        {
          "internalType": "address",
          "name": "account",
          "type": "address"
        }
      ],
      "name": "OwnableUnauthorizedAccount",
      "type": "error"
    },
    {
      "anonymous": false,
      "inputs": [
        {
          "indexed": true,
          "internalType": "address",
          "name": "owner",
          "type": "address"
        },
        {
          "indexed": true,
          "internalType": "address",
          "name": "approved",
          "type": "address"
        },
        {
          "indexed": true,
          "internalType": "uint256",
          "name": "tokenId",
          "type": "uint256"
        }
      ],
      "name": "Approval",
      "type": "event"
    },
    {
      "anonymous": false,
      "inputs": [
        {
          "indexed": true,
          "internalType": "address",
          "name": "owner",
          "type": "address"
        },
        {
          "indexed": true,
          "internalType": "address",
          "name": "operator",
          "type": "address"
        },
        {
          "indexed": false,
          "internalType": "bool",
          "name": "approved",
          "type": "bool"
        }
      ],
      "name": "ApprovalForAll",
      "type": "event"
    },
    {
      "anonymous": false,
      "inputs": [
        {
          "indexed": false,
          "internalType": "uint256",
          "name": "_fromTokenId",
          "type": "uint256"
        },
        {
          "indexed": false,
          "internalType": "uint256",
          "name": "_toTokenId",
          "type": "uint256"
        }
      ],
      "name": "BatchMetadataUpdate",
      "type": "event"
    },
    {
      "anonymous": false,
      "inputs": [
        {
          "indexed": false,
          "internalType": "uint256",
          "name": "_tokenId",
          "type": "uint256"
        }
      ],
      "name": "MetadataUpdate",
      "type": "event"
    },
    {
      "anonymous": false,
      "inputs": [
        {
          "indexed": true,
          "internalType": "address",
          "name": "previousOwner",
          "type": "address"
        },
        {
          "indexed": true,
          "internalType": "address",
          "name": "newOwner",
          "type": "address"
        }
      ],
      "name": "OwnershipTransferred",
      "type": "event"
    },
    {
      "anonymous": false,
      "inputs": [
        {
          "indexed": true,
          "internalType": "address",
          "name": "from",
          "type": "address"
        },
        {
          "indexed": true,
          "internalType": "address",
          "name": "to",
          "type": "address"
        },
        {
          "indexed": true,
          "internalType": "uint256",
          "name": "tokenId",
          "type": "uint256"
        }
      ],
      "name": "Transfer",
      "type": "event"
    },
    {
      "inputs": [
        {
          "internalType": "address",
          "name": "to",
          "type": "address"
        },
        {
          "internalType": "uint256",
          "name": "tokenId",
          "type": "uint256"
        }
      ],
      "name": "approve",
      "outputs": [],
      "stateMutability": "nonpayable",
      "type": "function"
    },
    {
      "inputs": [
        {
          "internalType": "address",
          "name": "owner",
          "type": "address"
        }
      ],
      "name": "balanceOf",
      "outputs": [
        {
          "internalType": "uint256",
          "name": "",
          "type": "uint256"
        }
      ],
      "stateMutability": "view",
      "type": "function"
    },
    {
      "inputs": [
        {
          "internalType": "uint256",
          "name": "tokenId",
          "type": "uint256"
        }
      ],
      "name": "getApproved",
      "outputs": [
        {
          "internalType": "address",
          "name": "",
          "type": "address"
        }
      ],
      "stateMutability": "view",
      "type": "function"
    },
    {
      "inputs": [
        {
          "internalType": "address",
          "name": "owner",
          "type": "address"
        },
        {
          "internalType": "address",
          "name": "operator",
          "type": "address"
        }
      ],
      "name": "isApprovedForAll",
      "outputs": [
        {
          "internalType": "bool",
          "name": "",
          "type": "bool"
        }
      ],
      "stateMutability": "view",
      "type": "function"
    },
    {
      "inputs": [],
      "name": "name",
      "outputs": [
        {
          "internalType": "string",
          "name": "",
          "type": "string"
        }
      ],
      "stateMutability": "view",
      "type": "function"
    },
    {
      "inputs": [],
      "name": "owner",
      "outputs": [
        {
          "internalType": "address",
          "name": "",
          "type": "address"
        }
      ],
      "stateMutability": "view",
      "type": "function"
    },
    {
      "inputs": [
        {
          "internalType": "uint256",
          "name": "tokenId",
          "type": "uint256"
        }
      ],
      "name": "ownerOf",
      "outputs": [
        {
          "internalType": "address",
          "name": "",
          "type": "address"
        }
      ],
      "stateMutability": "view",
      "type": "function"
    },
    {
      "inputs": [],
      "name": "renounceOwnership",
      "outputs": [],
      "stateMutability": "nonpayable",
      "type": "function"
    },
    {
      "inputs": [
        {
          "internalType": "address",
          "name": "to",
          "type": "address"
        },
        {
          "internalType": "uint256",
          "name": "tokenId",
          "type": "uint256"
        },
        {
          "internalType": "string",
          "name": "uri",
          "type": "string"
        }
      ],
      "name": "safeMint",
      "outputs": [],
      "stateMutability": "nonpayable",
      "type": "function"
    },
    {
      "inputs": [
        {
          "internalType": "address",
          "name": "from",
          "type": "address"
        },
        {
          "internalType": "address",
          "name": "to",
          "type": "address"
        },
        {
          "internalType": "uint256",
          "name": "tokenId",
          "type": "uint256"
        }
      ],
      "name": "safeTransferFrom",
      "outputs": [],
      "stateMutability": "nonpayable",
      "type": "function"
    },
    {
      "inputs": [
        {
          "internalType": "address",
          "name": "from",
          "type": "address"
        },
        {
          "internalType": "address",
          "name": "to",
          "type": "address"
        },
        {
          "internalType": "uint256",
          "name": "tokenId",
          "type": "uint256"
        },
        {
          "internalType": "bytes",
          "name": "data",
          "type": "bytes"
        }
      ],
      "name": "safeTransferFrom",
      "outputs": [],
      "stateMutability": "nonpayable",
      "type": "function"
    },
    {
      "inputs": [
        {
          "internalType": "address",
          "name": "operator",
          "type": "address"
        },
        {
          "internalType": "bool",
          "name": "approved",
          "type": "bool"
        }
      ],
      "name": "setApprovalForAll",
      "outputs": [],
      "stateMutability": "nonpayable",
      "type": "function"
    },
    {
      "inputs": [
        {
          "internalType": "bytes4",
          "name": "interfaceId",
          "type": "bytes4"
        }
      ],
      "name": "supportsInterface",
      "outputs": [
        {
          "internalType": "bool",
          "name": "",
          "type": "bool"
        }
      ],
      "stateMutability": "view",
      "type": "function"
    },
    {
      "inputs": [],
      "name": "symbol",
      "outputs": [
        {
          "internalType": "string",
          "name": "",
          "type": "string"
        }
      ],
      "stateMutability": "view",
      "type": "function"
    },
    {
      "inputs": [
        {
          "internalType": "uint256",
          "name": "index",
          "type": "uint256"
        }
      ],
      "name": "tokenByIndex",
      "outputs": [
        {
          "internalType": "uint256",
          "name": "",
          "type": "uint256"
        }
      ],
      "stateMutability": "view",
      "type": "function"
    },
    {
      "inputs": [
        {
          "internalType": "address",
          "name": "owner",
          "type": "address"
        },
        {
          "internalType": "uint256",
          "name": "index",
          "type": "uint256"
        }
      ],
      "name": "tokenOfOwnerByIndex",
      "outputs": [
        {
          "internalType": "uint256",
          "name": "",
          "type": "uint256"
        }
      ],
      "stateMutability": "view",
      "type": "function"
    },
    {
      "inputs": [
        {
          "internalType": "uint256",
          "name": "tokenId",
          "type": "uint256"
        }
      ],
      "name": "tokenURI",
      "outputs": [
        {
          "internalType": "string",
          "name": "",
          "type": "string"
        }
      ],
      "stateMutability": "view",
      "type": "function"
    },
    {
      "inputs": [],
      "name": "totalSupply",
      "outputs": [
        {
          "internalType": "uint256",
          "name": "",
          "type": "uint256"
        }
      ],
      "stateMutability": "view",
      "type": "function"
    },
    {
      "inputs": [
        {
          "internalType": "address",
          "name": "from",
          "type": "address"
        },
        {
          "internalType": "address",
          "name": "to",
          "type": "address"
        },
        {
          "internalType": "uint256",
          "name": "tokenId",
          "type": "uint256"
        }
      ],
      "name": "transferFrom",
      "outputs": [],
      "stateMutability": "nonpayable",
      "type": "function"
    },
    {
      "inputs": [
        {
          "internalType": "address",
          "name": "newOwner",
          "type": "address"
        }
      ],
      "name": "transferOwnership",
      "outputs": [],
      "stateMutability": "nonpayable",
      "type": "function"
    }
  ],
  "bytecode": "0x60806040523480156200001157600080fd5b50336040518060400160405280601481526020017f5265616c20576f726c64204173736574204e46540000000000000000000000008152506040518060400160405280600381526020016252574160e81b8152508160009081620000769190620001c0565b506001620000858282620001c0565b5050506001600160a01b038116620000b757604051631e4fbdf760e01b81526000600482015260240160405180910390fd5b620000c281620000c9565b506200028c565b600b80546001600160a01b038381166001600160a01b0319831681179093556040519116919082907f8be0079c531659141344cd1fd0a4f28419497f9722a3daafe3b4186f6b6457e090600090a35050565b634e487b7160e01b600052604160045260246000fd5b600181811c908216806200014657607f821691505b6020821081036200016757634e487b7160e01b600052602260045260246000fd5b50919050565b601f821115620001bb57600081815260208120601f850160051c81016020861015620001965750805b601f850160051c820191505b81811015620001b757828155600101620001a2565b5050505b505050565b81516001600160401b03811115620001dc57620001dc6200011b565b620001f481620001ed845462000131565b846200016d565b602080601f8311600181146200022c5760008415620002135750858301515b600019600386901b1c1916600185901b178555620001b7565b600085815260208120601f198616915b828110156200025d578886015182559484019460019091019084016200023c565b50858210156200027c5787850151600019600388901b60f8161c191681555b5050505050600190811b01905550565b6117d5806200029c6000396000f3fe608060405234801561001057600080fd5b506004361061012c5760003560e01c806370a08231116100ad578063b88d4fde11610071578063b88d4fde14610266578063c87b56dd14610279578063cd279c7c1461028c578063e985e9c51461029f578063f2fde38b146102b257600080fd5b806370a082311461021f578063715018a6146102325780638da5cb5b1461023a57806395d89b411461024b578063a22cb4651461025357600080fd5b806323b872dd116100f457806323b872dd146101c05780632f745c59146101d357806342842e0e146101e65780634f6ccce7146101f95780636352211e1461020c57600080fd5b806301ffc9a71461013157806306fdde0314610159578063081812fc1461016e578063095ea7b31461019957806318160ddd146101ae575b600080fd5b61014461013f366004611271565b6102c5565b60405190151581526020015b60405180910390f35b6101616102d6565b60405161015091906112de565b61018161017c3660046112f1565b610368565b6040516001600160a01b039091168152602001610150565b6101ac6101a7366004611326565b610391565b005b6009545b604051908152602001610150565b6101ac6101ce366004611350565b6103a0565b6101b26101e1366004611326565b610430565b6101ac6101f4366004611350565b610495565b6101b26102073660046112f1565b6104b5565b61018161021a3660046112f1565b61050e565b6101b261022d36600461138c565b610519565b6101ac610561565b600b546001600160a01b0316610181565b610161610575565b6101ac6102613660046113a7565b610584565b6101ac61027436600461146f565b61058f565b6101616102873660046112f1565b6105a7565b6101ac61029a3660046114eb565b6105b2565b6101446102ad366004611556565b6105ce565b6101ac6102c036600461138c565b6105fc565b60006102d08261063a565b92915050565b6060600080546102e590611589565b80601f016020809104026020016040519081016040528092919081815260200182805461031190611589565b801561035e5780601f106103335761010080835404028352916020019161035e565b820191906000526020600020905b81548152906001019060200180831161034157829003601f168201915b5050505050905090565b60006103738261065f565b506000828152600460205260409020546001600160a01b03166102d0565b61039c828233610698565b5050565b6001600160a01b0382166103cf57604051633250574960e11b8152600060048201526024015b60405180910390fd5b60006103dc8383336106a5565b9050836001600160a01b0316816001600160a01b03161461042a576040516364283d7b60e01b81526001600160a01b03808616600483015260248201849052821660448201526064016103c6565b50505050565b600061043b83610519565b821061046c5760405163295f44f760e21b81526001600160a01b0384166004820152602481018390526044016103c6565b506001600160a01b03919091166000908152600760209081526040808320938352929052205490565b6104b08383836040518060200160405280600081525061058f565b505050565b60006104c060095490565b82106104e95760405163295f44f760e21b815260006004820152602481018390526044016103c6565b600982815481106104fc576104fc6115c3565b90600052602060002001549050919050565b60006102d08261065f565b60006001600160a01b038216610545576040516322718ad960e21b8152600060048201526024016103c6565b506001600160a01b031660009081526003602052604090205490565b6105696106ba565b61057360006106e7565b565b6060600180546102e590611589565b61039c338383610739565b61059a8484846103a0565b61042a33858585856107d8565b60606102d082610903565b6105ba6106ba565b6105c48383610a0c565b6104b08282610a26565b6001600160a01b03918216600090815260056020908152604080832093909416825291909152205460ff1690565b6106046106ba565b6001600160a01b03811661062e57604051631e4fbdf760e01b8152600060048201526024016103c6565b610637816106e7565b50565b60006001600160e01b0319821663780e9d6360e01b14806102d057506102d082610a76565b6000818152600260205260408120546001600160a01b0316806102d057604051637e27328960e01b8152600481018490526024016103c6565b6104b08383836001610a9b565b60006106b2848484610ba1565b949350505050565b600b546001600160a01b031633146105735760405163118cdaa760e01b81523360048201526024016103c6565b600b80546001600160a01b038381166001600160a01b0319831681179093556040519116919082907f8be0079c531659141344cd1fd0a4f28419497f9722a3daafe3b4186f6b6457e090600090a35050565b6001600160a01b03821661076b57604051630b61174360e31b81526001600160a01b03831660048201526024016103c6565b6001600160a01b03838116600081815260056020908152604080832094871680845294825291829020805460ff191686151590811790915591519182527f17307eab39ab6107e8899845ad3d59bd9653f200f220920489ca2b5937696c31910160405180910390a3505050565b6001600160a01b0383163b156108fc57604051630a85bd0160e11b81526001600160a01b0384169063150b7a029061081a9088908890879087906004016115d9565b6020604051808303816000875af1925050508015610855575060408051601f3d908101601f1916820190925261085291810190611616565b60015b6108be573d808015610883576040519150601f19603f3d011682016040523d82523d6000602084013e610888565b606091505b5080516000036108b657604051633250574960e11b81526001600160a01b03851660048201526024016103c6565b805160208201fd5b6001600160e01b03198116630a85bd0160e11b146108fa57604051633250574960e11b81526001600160a01b03851660048201526024016103c6565b505b5050505050565b606061090e8261065f565b506000828152600660205260408120805461092890611589565b80601f016020809104026020016040519081016040528092919081815260200182805461095490611589565b80156109a15780601f10610976576101008083540402835291602001916109a1565b820191906000526020600020905b81548152906001019060200180831161098457829003601f168201915b5050505050905060006109bf60408051602081019091526000815290565b905080516000036109d1575092915050565b815115610a035780826040516020016109eb929190611633565b60405160208183030381529060405292505050919050565b6106b284610c6e565b61039c828260405180602001604052806000815250610ce3565b6000828152600660205260409020610a3e82826116a8565b506040518281527ff8e1a15aba9398e019f0b49df1a4fde98ee17ae345cb5f6b5e2c27f5033e8ce79060200160405180910390a15050565b60006001600160e01b03198216632483248360e11b14806102d057506102d082610cfb565b8080610aaf57506001600160a01b03821615155b15610b71576000610abf8461065f565b90506001600160a01b03831615801590610aeb5750826001600160a01b0316816001600160a01b031614155b8015610afe5750610afc81846105ce565b155b15610b275760405163a9fbf51f60e01b81526001600160a01b03841660048201526024016103c6565b8115610b6f5783856001600160a01b0316826001600160a01b03167f8c5be1e5ebec7d5bd14f71427d1e84f3dd0314c0f7b2291e5b200ac8c7c3b92560405160405180910390a45b505b5050600090815260046020526040902080546001600160a01b0319166001600160a01b0392909216919091179055565b600080610baf858585610d4b565b90506001600160a01b038116610c0c57610c0784600980546000838152600a60205260408120829055600182018355919091527f6e1540171b6c0c960b71a7020d9f60077f6af931a8bbf590da0223dacf75c7af0155565b610c2f565b846001600160a01b0316816001600160a01b031614610c2f57610c2f8185610e44565b6001600160a01b038516610c4b57610c4684610ec5565b6106b2565b846001600160a01b0316816001600160a01b0316146106b2576106b28585610f74565b6060610c798261065f565b506000610c9160408051602081019091526000815290565b90506000815111610cb15760405180602001604052806000815250610cdc565b80610cbb84610fc4565b604051602001610ccc929190611633565b6040516020818303038152906040525b9392505050565b610ced8383611057565b6104b03360008585856107d8565b60006001600160e01b031982166380ac58cd60e01b1480610d2c57506001600160e01b03198216635b5e139f60e01b145b806102d057506301ffc9a760e01b6001600160e01b03198316146102d0565b6000828152600260205260408120546001600160a01b0390811690831615610d7857610d788184866110bc565b6001600160a01b03811615610db657610d95600085600080610a9b565b6001600160a01b038116600090815260036020526040902080546000190190555b6001600160a01b03851615610de5576001600160a01b0385166000908152600360205260409020805460010190555b60008481526002602052604080822080546001600160a01b0319166001600160a01b0389811691821790925591518793918516917fddf252ad1be2c89b69c2b068fc378daa952ba7f163c4a11628f55a4df523b3ef91a4949350505050565b6000610e4f83610519565b6000838152600860209081526040808320546001600160a01b0388168452600790925290912091925090818314610ea657600083815260208281526040808320548584528184208190558352600890915290208290555b6000938452600860209081526040808620869055938552525081205550565b600954600090610ed790600190611768565b6000838152600a602052604081205460098054939450909284908110610eff57610eff6115c3565b906000526020600020015490508060098381548110610f2057610f206115c3565b6000918252602080832090910192909255828152600a90915260408082208490558582528120556009805480610f5857610f58611789565b6001900381819060005260206000200160009055905550505050565b60006001610f8184610519565b610f8b9190611768565b6001600160a01b039093166000908152600760209081526040808320868452825280832085905593825260089052919091209190915550565b60606000610fd183611120565b600101905060008167ffffffffffffffff811115610ff157610ff16113e3565b6040519080825280601f01601f19166020018201604052801561101b576020820181803683370190505b5090508181016020015b600019016f181899199a1a9b1b9c1cb0b131b232b360811b600a86061a8153600a850494508461102557509392505050565b6001600160a01b03821661108157604051633250574960e11b8152600060048201526024016103c6565b600061108f838360006106a5565b90506001600160a01b038116156104b0576040516339e3563760e11b8152600060048201526024016103c6565b6110c78383836111f8565b6104b0576001600160a01b0383166110f557604051637e27328960e01b8152600481018290526024016103c6565b60405163177e802f60e01b81526001600160a01b0383166004820152602481018290526044016103c6565b60008072184f03e93ff9f4daa797ed6e38ed64bf6a1f0160401b831061115f5772184f03e93ff9f4daa797ed6e38ed64bf6a1f0160401b830492506040015b6d04ee2d6d415b85acef8100000000831061118b576d04ee2d6d415b85acef8100000000830492506020015b662386f26fc1000083106111a957662386f26fc10000830492506010015b6305f5e10083106111c1576305f5e100830492506008015b61271083106111d557612710830492506004015b606483106111e7576064830492506002015b600a83106102d05760010192915050565b60006001600160a01b038316158015906106b25750826001600160a01b0316846001600160a01b03161480611232575061123284846105ce565b806106b25750506000908152600460205260409020546001600160a01b03908116911614919050565b6001600160e01b03198116811461063757600080fd5b60006020828403121561128357600080fd5b8135610cdc8161125b565b60005b838110156112a9578181015183820152602001611291565b50506000910152565b600081518084526112ca81602086016020860161128e565b601f01601f19169290920160200192915050565b602081526000610cdc60208301846112b2565b60006020828403121561130357600080fd5b5035919050565b80356001600160a01b038116811461132157600080fd5b919050565b6000806040838503121561133957600080fd5b6113428361130a565b946020939093013593505050565b60008060006060848603121561136557600080fd5b61136e8461130a565b925061137c6020850161130a565b9150604084013590509250925092565b60006020828403121561139e57600080fd5b610cdc8261130a565b600080604083850312156113ba57600080fd5b6113c38361130a565b9150602083013580151581146113d857600080fd5b809150509250929050565b634e487b7160e01b600052604160045260246000fd5b600067ffffffffffffffff80841115611414576114146113e3565b604051601f8501601f19908116603f0116810190828211818310171561143c5761143c6113e3565b8160405280935085815286868601111561145557600080fd5b858560208301376000602087830101525050509392505050565b6000806000806080858703121561148557600080fd5b61148e8561130a565b935061149c6020860161130a565b925060408501359150606085013567ffffffffffffffff8111156114bf57600080fd5b8501601f810187136114d057600080fd5b6114df878235602084016113f9565b91505092959194509250565b60008060006060848603121561150057600080fd5b6115098461130a565b925060208401359150604084013567ffffffffffffffff81111561152c57600080fd5b8401601f8101861361153d57600080fd5b61154c868235602084016113f9565b9150509250925092565b6000806040838503121561156957600080fd5b6115728361130a565b91506115806020840161130a565b90509250929050565b600181811c9082168061159d57607f821691505b6020821081036115bd57634e487b7160e01b600052602260045260246000fd5b50919050565b634e487b7160e01b600052603260045260246000fd5b6001600160a01b038581168252841660208201526040810183905260806060820181905260009061160c908301846112b2565b9695505050505050565b60006020828403121561162857600080fd5b8151610cdc8161125b565b6000835161164581846020880161128e565b83519083019061165981836020880161128e565b01949350505050565b601f8211156104b057600081815260208120601f850160051c810160208610156116895750805b601f850160051c820191505b818110156108fa57828155600101611695565b815167ffffffffffffffff8111156116c2576116c26113e3565b6116d6816116d08454611589565b84611662565b602080601f83116001811461170b57600084156116f35750858301515b600019600386901b1c1916600185901b1785556108fa565b600085815260208120601f198616915b8281101561173a5788860151825594840194600190910190840161171b565b50858210156117585787850151600019600388901b60f8161c191681555b5050505050600190811b01905550565b818103818111156102d057634e487b7160e01b600052601160045260246000fd5b634e487b7160e01b600052603160045260246000fdfea264697066735822122033f651f9db370ff9f93c19ab1ef968fc9cdffdbade0304eb3d02c5a513f8f06e64736f6c63430008140033",
  "linkReferences": {},
  "deployedLinkReferences": {}
}