{
  "_format": "hh-sol-artifact-1",
  "contractName": "RWA_Oracle",
  "sourceName": "contracts/oracles/RWA_Oracle.sol",
  "abi": [
    {
      "inputs": [],
      "stateMutability": "nonpayable",
      "type": "constructor"
    },
    {
      "inputs": [
        {
          "internalType": "address",
          "name": "owner",
          "type": "address"
        }
      ],
      "name": "OwnableInvalidOwner",
      "type": "error"
    },
    {
      "inputs": [
        {
          "internalType": "address",
          "name": "account",
          "type": "address"
        }
      ],
      "name": "OwnableUnauthorizedAccount",
      "type": "error"
    },
    {
      "anonymous": false,
      "inputs": [
        {
          "indexed": true,
          "internalType": "address",
          "name": "previousOwner",
          "type": "address"
        },
        {
          "indexed": true,
          "internalType": "address",
          "name": "newOwner",
          "type": "address"
        }
      ],
      "name": "OwnershipTransferred",
      "type": "event"
    },
    {
      "anonymous": false,
      "inputs": [
        {
          "indexed": true,
          "internalType": "uint256",
          "name": "tokenId",
          "type": "uint256"
        },
        {
          "indexed": false,
          "internalType": "uint256",
          "name": "newPrice",
          "type": "uint256"
        }
      ],
      "name": "PriceUpdated",
      "type": "event"
    },
    {
      "inputs": [
        {
          "internalType": "uint256",
          "name": "tokenId",
          "type": "uint256"
        }
      ],
      "name": "getAssetPrice",
      "outputs": [
        {
          "internalType": "uint256",
          "name": "",
          "type": "uint256"
        }
      ],
      "stateMutability": "view",
      "type": "function"
    },
    {
      "inputs": [
        {
          "internalType": "uint256",
          "name": "tokenId",
          "type": "uint256"
        }
      ],
      "name": "isPriceSet",
      "outputs": [
        {
          "internalType": "bool",
          "name": "",
          "type": "bool"
        }
      ],
      "stateMutability": "view",
      "type": "function"
    },
    {
      "inputs": [],
      "name": "owner",
      "outputs": [
        {
          "internalType": "address",
          "name": "",
          "type": "address"
        }
      ],
      "stateMutability": "view",
      "type": "function"
    },
    {
      "inputs": [],
      "name": "renounceOwnership",
      "outputs": [],
      "stateMutability": "nonpayable",
      "type": "function"
    },
    {
      "inputs": [
        {
          "internalType": "uint256",
          "name": "tokenId",
          "type": "uint256"
        },
        {
          "internalType": "uint256",
          "name": "price",
          "type": "uint256"
        }
      ],
      "name": "setAssetPrice",
      "outputs": [],
      "stateMutability": "nonpayable",
      "type": "function"
    },
    {
      "inputs": [
        {
          "internalType": "address",
          "name": "newOwner",
          "type": "address"
        }
      ],
      "name": "transferOwnership",
      "outputs": [],
      "stateMutability": "nonpayable",
      "type": "function"
    }
  ],
  "bytecode": "0x608060405234801561001057600080fd5b50338061003757604051631e4fbdf760e01b81526000600482015260240160405180910390fd5b61004081610046565b50610096565b600080546001600160a01b038381166001600160a01b0319831681178455604051919092169283917f8be0079c531659141344cd1fd0a4f28419497f9722a3daafe3b4186f6b6457e09190a35050565b61038a806100a56000396000f3fe608060405234801561001057600080fd5b50600436106100625760003560e01c806314e5d43b14610067578063569d78161461009e5780635e694cf5146100b3578063715018a6146100d45780638da5cb5b146100dc578063f2fde38b146100f7575b600080fd5b6100896100753660046102e9565b600090815260016020526040902054151590565b60405190151581526020015b60405180910390f35b6100b16100ac366004610302565b61010a565b005b6100c66100c13660046102e9565b6101b8565b604051908152602001610095565b6100b161021a565b6000546040516001600160a01b039091168152602001610095565b6100b1610105366004610324565b61022e565b61011261026c565b600081116101675760405162461bcd60e51b815260206004820152601c60248201527f5072696365206d7573742062652067726561746572207468616e20300000000060448201526064015b60405180910390fd5b600082815260016020526040908190208290555182907f945c1c4e99aa89f648fbfe3df471b916f719e16d960fcec0737d4d56bd696838906101ac9084815260200190565b60405180910390a25050565b600081815260016020526040812054806102145760405162461bcd60e51b815260206004820152601c60248201527f5072696365206e6f742073657420666f72207468697320617373657400000000604482015260640161015e565b92915050565b61022261026c565b61022c6000610299565b565b61023661026c565b6001600160a01b03811661026057604051631e4fbdf760e01b81526000600482015260240161015e565b61026981610299565b50565b6000546001600160a01b0316331461022c5760405163118cdaa760e01b815233600482015260240161015e565b600080546001600160a01b038381166001600160a01b0319831681178455604051919092169283917f8be0079c531659141344cd1fd0a4f28419497f9722a3daafe3b4186f6b6457e09190a35050565b6000602082840312156102fb57600080fd5b5035919050565b6000806040838503121561031557600080fd5b50508035926020909101359150565b60006020828403121561033657600080fd5b81356001600160a01b038116811461034d57600080fd5b939250505056fea2646970667358221220100f510f4e1bfa5a85dd289381ce473353b7df3f089db4a42ab610336e325be564736f6c63430008140033",
  "linkReferences": {},
  "deployedLinkReferences": {}
}