{
  "_format": "hh-sol-artifact-1",
  "contractName": "Vault",
  "sourceName": "contracts/core/Vault.sol",
  "abi": [
    {
      "inputs": [
        {
          "internalType": "address",
          "name": "_rwaToken",
          "type": "address"
        },
        {
          "internalType": "address",
          "name": "_usdcToken",
          "type": "address"
        },
        {
          "internalType": "address",
          "name": "_oracle",
          "type": "address"
        },
        {
          "internalType": "address",
          "name": "_lendingPool",
          "type": "address"
        }
      ],
      "stateMutability": "nonpayable",
      "type": "constructor"
    },
    {
      "inputs": [
        {
          "internalType": "address",
          "name": "token",
          "type": "address"
        }
      ],
      "name": "SafeERC20FailedOperation",
      "type": "error"
    },
    {
      "anonymous": false,
      "inputs": [
        {
          "indexed": true,
          "internalType": "address",
          "name": "user",
          "type": "address"
        },
        {
          "indexed": true,
          "internalType": "uint256",
          "name": "tokenId",
          "type": "uint256"
        },
        {
          "indexed": false,
          "internalType": "uint256",
          "name": "amount",
          "type": "uint256"
        }
      ],
      "name": "Borrowed",
      "type": "event"
    },
    {
      "anonymous": false,
      "inputs": [
        {
          "indexed": true,
          "internalType": "address",
          "name": "user",
          "type": "address"
        },
        {
          "indexed": true,
          "internalType": "uint256",
          "name": "tokenId",
          "type": "uint256"
        }
      ],
      "name": "CollateralDeposited",
      "type": "event"
    },
    {
      "anonymous": false,
      "inputs": [
        {
          "indexed": true,
          "internalType": "address",
          "name": "user",
          "type": "address"
        },
        {
          "indexed": true,
          "internalType": "uint256",
          "name": "tokenId",
          "type": "uint256"
        }
      ],
      "name": "CollateralWithdrawn",
      "type": "event"
    },
    {
      "anonymous": false,
      "inputs": [
        {
          "indexed": true,
          "internalType": "address",
          "name": "manager",
          "type": "address"
        }
      ],
      "name": "LiquidationManagerSet",
      "type": "event"
    },
    {
      "anonymous": false,
      "inputs": [
        {
          "indexed": true,
          "internalType": "address",
          "name": "user",
          "type": "address"
        },
        {
          "indexed": true,
          "internalType": "uint256",
          "name": "tokenId",
          "type": "uint256"
        },
        {
          "indexed": false,
          "internalType": "uint256",
          "name": "amount",
          "type": "uint256"
        }
      ],
      "name": "Repaid",
      "type": "event"
    },
    {
      "inputs": [],
      "name": "LTV",
      "outputs": [
        {
          "internalType": "uint256",
          "name": "",
          "type": "uint256"
        }
      ],
      "stateMutability": "view",
      "type": "function"
    },
    {
      "inputs": [],
      "name": "LTV_PRECISION",
      "outputs": [
        {
          "internalType": "uint256",
          "name": "",
          "type": "uint256"
        }
      ],
      "stateMutability": "view",
      "type": "function"
    },
    {
      "inputs": [
        {
          "internalType": "uint256",
          "name": "tokenId",
          "type": "uint256"
        },
        {
          "internalType": "uint256",
          "name": "amount",
          "type": "uint256"
        }
      ],
      "name": "borrow",
      "outputs": [],
      "stateMutability": "nonpayable",
      "type": "function"
    },
    {
      "inputs": [
        {
          "internalType": "uint256",
          "name": "tokenId",
          "type": "uint256"
        }
      ],
      "name": "clearDebt",
      "outputs": [],
      "stateMutability": "nonpayable",
      "type": "function"
    },
    {
      "inputs": [
        {
          "internalType": "uint256",
          "name": "tokenId",
          "type": "uint256"
        }
      ],
      "name": "depositCollateral",
      "outputs": [],
      "stateMutability": "nonpayable",
      "type": "function"
    },
    {
      "inputs": [
        {
          "internalType": "uint256",
          "name": "tokenId",
          "type": "uint256"
        }
      ],
      "name": "getPosition",
      "outputs": [
        {
          "components": [
            {
              "internalType": "address",
              "name": "owner",
              "type": "address"
            },
            {
              "internalType": "uint256",
              "name": "debt",
              "type": "uint256"
            },
            {
              "internalType": "uint256",
              "name": "tokenId",
              "type": "uint256"
            },
            {
              "internalType": "bool",
              "name": "active",
              "type": "bool"
            }
          ],
          "internalType": "struct Vault.Position",
          "name": "",
          "type": "tuple"
        }
      ],
      "stateMutability": "view",
      "type": "function"
    },
    {
      "inputs": [],
      "name": "lendingPool",
      "outputs": [
        {
          "internalType": "contract LendingPool",
          "name": "",
          "type": "address"
        }
      ],
      "stateMutability": "view",
      "type": "function"
    },
    {
      "inputs": [],
      "name": "liquidationManager",
      "outputs": [
        {
          "internalType": "address",
          "name": "",
          "type": "address"
        }
      ],
      "stateMutability": "view",
      "type": "function"
    },
    {
      "inputs": [],
      "name": "liquidationManagerSet",
      "outputs": [
        {
          "internalType": "bool",
          "name": "",
          "type": "bool"
        }
      ],
      "stateMutability": "view",
      "type": "function"
    },
    {
      "inputs": [
        {
          "internalType": "address",
          "name": "",
          "type": "address"
        },
        {
          "internalType": "address",
          "name": "",
          "type": "address"
        },
        {
          "internalType": "uint256",
          "name": "",
          "type": "uint256"
        },
        {
          "internalType": "bytes",
          "name": "",
          "type": "bytes"
        }
      ],
      "name": "onERC721Received",
      "outputs": [
        {
          "internalType": "bytes4",
          "name": "",
          "type": "bytes4"
        }
      ],
      "stateMutability": "pure",
      "type": "function"
    },
    {
      "inputs": [],
      "name": "oracle",
      "outputs": [
        {
          "internalType": "contract RWA_Oracle",
          "name": "",
          "type": "address"
        }
      ],
      "stateMutability": "view",
      "type": "function"
    },
    {
      "inputs": [
        {
          "internalType": "uint256",
          "name": "",
          "type": "uint256"
        }
      ],
      "name": "positions",
      "outputs": [
        {
          "internalType": "address",
          "name": "owner",
          "type": "address"
        },
        {
          "internalType": "uint256",
          "name": "debt",
          "type": "uint256"
        },
        {
          "internalType": "uint256",
          "name": "tokenId",
          "type": "uint256"
        },
        {
          "internalType": "bool",
          "name": "active",
          "type": "bool"
        }
      ],
      "stateMutability": "view",
      "type": "function"
    },
    {
      "inputs": [
        {
          "internalType": "uint256",
          "name": "tokenId",
          "type": "uint256"
        },
        {
          "internalType": "uint256",
          "name": "amount",
          "type": "uint256"
        }
      ],
      "name": "repay",
      "outputs": [],
      "stateMutability": "nonpayable",
      "type": "function"
    },
    {
      "inputs": [],
      "name": "rwaToken",
      "outputs": [
        {
          "internalType": "contract IERC721",
          "name": "",
          "type": "address"
        }
      ],
      "stateMutability": "view",
      "type": "function"
    },
    {
      "inputs": [
        {
          "internalType": "address",
          "name": "_manager",
          "type": "address"
        }
      ],
      "name": "setLiquidationManager",
      "outputs": [],
      "stateMutability": "nonpayable",
      "type": "function"
    },
    {
      "inputs": [
        {
          "internalType": "uint256",
          "name": "tokenId",
          "type": "uint256"
        },
        {
          "internalType": "address",
          "name": "winner",
          "type": "address"
        }
      ],
      "name": "transferCollateralToWinner",
      "outputs": [],
      "stateMutability": "nonpayable",
      "type": "function"
    },
    {
      "inputs": [],
      "name": "usdcToken",
      "outputs": [
        {
          "internalType": "contract IERC20",
          "name": "",
          "type": "address"
        }
      ],
      "stateMutability": "view",
      "type": "function"
    },
    {
      "inputs": [
        {
          "internalType": "uint256",
          "name": "tokenId",
          "type": "uint256"
        }
      ],
      "name": "withdrawCollateral",
      "outputs": [],
      "stateMutability": "nonpayable",
      "type": "function"
    }
  ],
  "bytecode": "0x60806040523480156200001157600080fd5b506040516200148a3803806200148a833981016040819052620000349162000209565b6001600160a01b038416620000905760405162461bcd60e51b815260206004820152601960248201527f496e76616c69642052574120746f6b656e20616464726573730000000000000060448201526064015b60405180910390fd5b6001600160a01b038316620000e85760405162461bcd60e51b815260206004820152601a60248201527f496e76616c6964205553444320746f6b656e2061646472657373000000000000604482015260640162000087565b6001600160a01b038216620001405760405162461bcd60e51b815260206004820152601660248201527f496e76616c6964206f7261636c65206164647265737300000000000000000000604482015260640162000087565b6001600160a01b038116620001985760405162461bcd60e51b815260206004820152601c60248201527f496e76616c6964206c656e64696e6720706f6f6c206164647265737300000000604482015260640162000087565b600080546001600160a01b039586166001600160a01b031991821617909155600180549486169482169490941790935560028054928516928416929092179091556003805491909316911617905562000266565b80516001600160a01b03811681146200020457600080fd5b919050565b600080600080608085870312156200022057600080fd5b6200022b85620001ec565b93506200023b60208601620001ec565b92506200024b60408601620001ec565b91506200025b60608601620001ec565b905092959194509250565b61121480620002766000396000f3fe608060405234801561001057600080fd5b50600436106101165760003560e01c80637dc0d1d0116100a2578063ae9b38b211610071578063ae9b38b2146102c5578063b78294dd146102d8578063bad4a01f146102e0578063d8aed145146102f3578063eb02c3011461030657600080fd5b80637dc0d1d01461020d5780638f4d360c1461022057806399fbab8814610244578063a59a9973146102b257600080fd5b8063150b7a02116100e9578063150b7a02146101865780631ef3a04c146101be57806338f92fc7146101d15780636112fe2e146101e457806362965d8e146101f757600080fd5b806301c2cdb81461011b5780630c5bf351146101305780630ecbcdab1461016057806311eac85514610173575b600080fd5b61012e610129366004610f56565b6103c3565b005b600054610143906001600160a01b031681565b6040516001600160a01b0390911681526020015b60405180910390f35b61012e61016e366004610f6f565b610462565b600154610143906001600160a01b031681565b6101a5610194366004610fad565b630a85bd0160e11b95945050505050565b6040516001600160e01b03199091168152602001610157565b600554610143906001600160a01b031681565b61012e6101df366004611048565b610760565b61012e6101f2366004610f56565b610860565b6101ff603c81565b604051908152602001610157565b600254610143906001600160a01b031681565b60055461023490600160a01b900460ff1681565b6040519015158152602001610157565b610286610252366004610f56565b60046020526000908152604090208054600182015460028301546003909301546001600160a01b0390921692909160ff1684565b604080516001600160a01b03909516855260208501939093529183015215156060820152608001610157565b600354610143906001600160a01b031681565b61012e6102d336600461106a565b6109d8565b6101ff606481565b61012e6102ee366004610f56565b610afc565b61012e610301366004610f6f565b610d1c565b610385610314366004610f56565b6040805160808082018352600080835260208084018290528385018290526060938401829052948152600485528390208351918201845280546001600160a01b0316825260018101549482019490945260028401549281019290925260039092015460ff1615159181019190915290565b604051610157919081516001600160a01b03168152602080830151908201526040808301519082015260609182015115159181019190915260800190565b6005546001600160a01b0316331461041d5760405162461bcd60e51b815260206004820152601860248201527727b7363c903634b8bab4b230ba34b7b71036b0b730b3b2b960411b60448201526064015b60405180910390fd5b60008181526004602052604090206003015460ff1661044e5760405162461bcd60e51b815260040161041490611096565b600090815260046020526040812060010155565b6000828152600460205260409020600381015460ff166104945760405162461bcd60e51b815260040161041490611096565b80546001600160a01b031633146104bd5760405162461bcd60e51b8152600401610414906110cd565b6000821161050d5760405162461bcd60e51b815260206004820152601d60248201527f416d6f756e74206d7573742062652067726561746572207468616e20300000006044820152606401610414565b600254604051635e694cf560e01b8152600481018590526000916001600160a01b031690635e694cf590602401602060405180830381865afa158015610557573d6000803e3d6000fd5b505050506040513d601f19601f8201168201806040525081019061057b9190611104565b90506000606461058c603c84611133565b6105969190611150565b905060008484600101546105aa9190611172565b9050818111156105fc5760405162461bcd60e51b815260206004820152601760248201527f4578636565647320626f72726f77696e67206c696d69740000000000000000006044820152606401610414565b6003546040805162910a5160e41b8152905187926001600160a01b031691630910a5109160048083019260209291908290030181865afa158015610644573d6000803e3d6000fd5b505050506040513d601f19601f820116820180604052508101906106689190611104565b10156106b65760405162461bcd60e51b815260206004820152601e60248201527f496e73756666696369656e74206c697175696469747920696e20706f6f6c00006044820152606401610414565b6001840181905560035460405163a2fb342d60e01b8152336004820152602481018790526001600160a01b039091169063a2fb342d90604401600060405180830381600087803b15801561070957600080fd5b505af115801561071d573d6000803e3d6000fd5b50506040518781528892503391507feae9cfbc77fdd40ca899f36b608256063b2bc9d8178b0220f7ad513e178d67309060200160405180910390a3505050505050565b600554600160a01b900460ff16156107ba5760405162461bcd60e51b815260206004820152601e60248201527f4c69717569646174696f6e4d616e6167657220616c72656164792073657400006044820152606401610414565b6001600160a01b0381166108105760405162461bcd60e51b815260206004820152601760248201527f496e76616c6964206d616e6167657220616464726573730000000000000000006044820152606401610414565b600580546001600160a81b0319166001600160a01b038316908117600160a01b179091556040517fc842de7a665738e024f3338788865650065f49e6a1d6f5bb4e789bbd3670ca2e90600090a250565b6000818152600460205260409020600381015460ff166108925760405162461bcd60e51b815260040161041490611096565b80546001600160a01b031633146108bb5760405162461bcd60e51b8152600401610414906110cd565b60018101541561090d5760405162461bcd60e51b815260206004820152601960248201527f4d75737420726570617920616c6c2064656274206669727374000000000000006044820152606401610414565b600082815260046020819052604080832080546001600160a01b03191681556001810184905560028101849055600301805460ff1916905591549151632142170760e11b81526001600160a01b03909216916342842e0e916109759130913391889101611185565b600060405180830381600087803b15801561098f57600080fd5b505af11580156109a3573d6000803e3d6000fd5b50506040518492503391507fc30fcfbcaac9e0deffa719714eaa82396ff506a0d0d0eebe170830177288715d90600090a35050565b6005546001600160a01b03163314610a2d5760405162461bcd60e51b815260206004820152601860248201527727b7363c903634b8bab4b230ba34b7b71036b0b730b3b2b960411b6044820152606401610414565b60008281526004602052604090206003015460ff16610a5e5760405162461bcd60e51b815260040161041490611096565b600082815260046020819052604080832080546001600160a01b03191681556001810184905560028101849055600301805460ff1916905591549151632142170760e11b81526001600160a01b03909216916342842e0e91610ac69130918691889101611185565b600060405180830381600087803b158015610ae057600080fd5b505af1158015610af4573d6000803e3d6000fd5b505050505050565b6002546040516314e5d43b60e01b8152600481018390526001600160a01b03909116906314e5d43b90602401602060405180830381865afa158015610b45573d6000803e3d6000fd5b505050506040513d601f19601f82011682018060405250810190610b6991906111a9565b610bb55760405162461bcd60e51b815260206004820152601c60248201527f5072696365206e6f742073657420666f722074686973206173736574000000006044820152606401610414565b60008181526004602052604090206003015460ff1615610c175760405162461bcd60e51b815260206004820152601760248201527f506f736974696f6e20616c7265616479206578697374730000000000000000006044820152606401610414565b600054604051632142170760e11b81526001600160a01b03909116906342842e0e90610c4b90339030908690600401611185565b600060405180830381600087803b158015610c6557600080fd5b505af1158015610c79573d6000803e3d6000fd5b50506040805160808101825233808252600060208084018281528486018981526001606087018181528b86526004909452878520965187546001600160a01b0319166001600160a01b03909116178755915191860191909155516002850155516003909301805460ff19169315159390931790925591518594509192507fd7243f6f8212d5188fd054141cf6ea89cfc0d91facb8c3afe2f88a135848014291a350565b6000828152600460205260409020600381015460ff16610d4e5760405162461bcd60e51b815260040161041490611096565b80546001600160a01b03163314610d775760405162461bcd60e51b8152600401610414906110cd565b60008211610dc75760405162461bcd60e51b815260206004820152601d60248201527f416d6f756e74206d7573742062652067726561746572207468616e20300000006044820152606401610414565b8181600101541015610e115760405162461bcd60e51b8152602060048201526013602482015272105b5bdd5b9d08195e18d959591cc81919589d606a1b6044820152606401610414565b81816001016000828254610e2591906111cb565b9091555050600354600154610e49916001600160a01b039182169133911685610e85565b604051828152839033907f1b8cd61ed43bec7c6bdad3a18ffee613f99c853d16c50678d248d879e1b434389060200160405180910390a3505050565b610edf84856001600160a01b03166323b872dd868686604051602401610ead93929190611185565b604051602081830303815290604052915060e01b6020820180516001600160e01b038381831617835250505050610ee5565b50505050565b600080602060008451602086016000885af180610f08576040513d6000823e3d81fd5b50506000513d91508115610f20578060011415610f2d565b6001600160a01b0384163b155b15610edf57604051635274afe760e01b81526001600160a01b0385166004820152602401610414565b600060208284031215610f6857600080fd5b5035919050565b60008060408385031215610f8257600080fd5b50508035926020909101359150565b80356001600160a01b0381168114610fa857600080fd5b919050565b600080600080600060808688031215610fc557600080fd5b610fce86610f91565b9450610fdc60208701610f91565b935060408601359250606086013567ffffffffffffffff8082111561100057600080fd5b818801915088601f83011261101457600080fd5b81358181111561102357600080fd5b89602082850101111561103557600080fd5b9699959850939650602001949392505050565b60006020828403121561105a57600080fd5b61106382610f91565b9392505050565b6000806040838503121561107d57600080fd5b8235915061108d60208401610f91565b90509250929050565b60208082526017908201527f506f736974696f6e20646f6573206e6f74206578697374000000000000000000604082015260600190565b6020808252601e908201527f4e6f7420746865206f776e6572206f66207468697320706f736974696f6e0000604082015260600190565b60006020828403121561111657600080fd5b5051919050565b634e487b7160e01b600052601160045260246000fd5b808202811582820484141761114a5761114a61111d565b92915050565b60008261116d57634e487b7160e01b600052601260045260246000fd5b500490565b8082018082111561114a5761114a61111d565b6001600160a01b039384168152919092166020820152604081019190915260600190565b6000602082840312156111bb57600080fd5b8151801515811461106357600080fd5b8181038181111561114a5761114a61111d56fea26469706673582212200120650269164eff14a55ae6dd943577778abcfd5111b7ed22843e559c0d48f664736f6c63430008140033",
  "linkReferences": {},
  "deployedLinkReferences": {}
}